{
  "contractName": "SimpleContract",
  "abi": [
    {
      "inputs": [],
      "name": "myString",
      "outputs": [
        {
          "internalType": "string",
          "name": "",
          "type": "string"
        }
      ],
      "stateMutability": "view",
      "type": "function",
      "constant": true
    },
    {
      "inputs": [
        {
          "internalType": "string",
          "name": "_newValue",
          "type": "string"
        }
      ],
      "name": "setString",
      "outputs": [],
      "stateMutability": "nonpayable",
      "type": "function"
    },
    {
      "inputs": [],
      "name": "getString",
      "outputs": [
        {
          "internalType": "string",
          "name": "",
          "type": "string"
        }
      ],
      "stateMutability": "view",
      "type": "function",
      "constant": true
    }
  ],
  "bytecode": "0x608060405234801561001057600080fd5b506107c5806100206000396000f3fe608060405234801561001057600080fd5b50600436106100415760003560e01c8063492bfa18146100465780637fcaf6661461006457806389ea642f14610080575b600080fd5b61004e61009e565b60405161005b91906101f7565b60405180910390f35b61007e60048036038101906100799190610362565b61012c565b005b61008861013f565b60405161009591906101f7565b60405180910390f35b600080546100ab906103da565b80601f01602080910402602001604051908101604052809291908181526020018280546100d7906103da565b80156101245780601f106100f957610100808354040283529160200191610124565b820191906000526020600020905b81548152906001019060200180831161010757829003601f168201915b505050505081565b806000908161013b91906105c1565b5050565b60606000604051602001610153919061076d565b604051602081830303815290604052905090565b600081519050919050565b600082825260208201905092915050565b60005b838110156101a1578082015181840152602081019050610186565b60008484015250505050565b6000601f19601f8301169050919050565b60006101c982610167565b6101d38185610172565b93506101e3818560208601610183565b6101ec816101ad565b840191505092915050565b6000602082019050818103600083015261021181846101be565b905092915050565b6000604051905090565b600080fd5b600080fd5b600080fd5b600080fd5b7f4e487b7100000000000000000000000000000000000000000000000000000000600052604160045260246000fd5b61026f826101ad565b810181811067ffffffffffffffff8211171561028e5761028d610237565b5b80604052505050565b60006102a1610219565b90506102ad8282610266565b919050565b600067ffffffffffffffff8211156102cd576102cc610237565b5b6102d6826101ad565b9050602081019050919050565b82818337600083830152505050565b6000610305610300846102b2565b610297565b90508281526020810184848401111561032157610320610232565b5b61032c8482856102e3565b509392505050565b600082601f8301126103495761034861022d565b5b81356103598482602086016102f2565b91505092915050565b60006020828403121561037857610377610223565b5b600082013567ffffffffffffffff81111561039657610395610228565b5b6103a284828501610334565b91505092915050565b7f4e487b7100000000000000000000000000000000000000000000000000000000600052602260045260246000fd5b600060028204905060018216806103f257607f821691505b602082108103610405576104046103ab565b5b50919050565b60008190508160005260206000209050919050565b60006020601f8301049050919050565b600082821b905092915050565b60006008830261046d7fffffffffffffffffffffffffffffffffffffffffffffffffffffffffffffffff82610430565b6104778683610430565b95508019841693508086168417925050509392505050565b6000819050919050565b6000819050919050565b60006104be6104b96104b48461048f565b610499565b61048f565b9050919050565b6000819050919050565b6104d8836104a3565b6104ec6104e4826104c5565b84845461043d565b825550505050565b600090565b6105016104f4565b61050c8184846104cf565b505050565b5b81811015610530576105256000826104f9565b600181019050610512565b5050565b601f821115610575576105468161040b565b61054f84610420565b8101602085101561055e578190505b61057261056a85610420565b830182610511565b50505b505050565b600082821c905092915050565b60006105986000198460080261057a565b1980831691505092915050565b60006105b18383610587565b9150826002028217905092915050565b6105ca82610167565b67ffffffffffffffff8111156105e3576105e2610237565b5b6105ed82546103da565b6105f8828285610534565b600060209050601f83116001811461062b5760008415610619578287015190505b61062385826105a5565b86555061068b565b601f1984166106398661040b565b60005b828110156106615784890151825560018201915060208501945060208101905061063c565b8683101561067e578489015161067a601f891682610587565b8355505b6001600288020188555050505b505050505050565b600081905092915050565b600081546106ab816103da565b6106b58186610693565b945060018216600081146106d057600181146106e557610718565b60ff1983168652811515820286019350610718565b6106ee8561040b565b60005b83811015610710578154818901526001820191506020810190506106f1565b838801955050505b50505092915050565b7f2066726f6d20676574537472696e670000000000000000000000000000000000600082015250565b6000610757600f83610693565b915061076282610721565b600f82019050919050565b6000610779828461069e565b91506107848261074a565b91508190509291505056fea26469706673582212201db1ea7f53c55ef8b4b5862b8d48887e089ceb4bf7cb0317f0a00bf809fa850564736f6c63430008130033",
  "immutableReferences": {},
  "source": "// SPDX-License-Identifier: MIT\r\npragma solidity ^0.8.19;\r\n\r\ncontract SimpleContract {\r\n    string public myString;\r\n    \r\n    function setString(string memory _newValue) public {\r\n        myString = _newValue;\r\n    }\r\n    \r\n    // function getString() public view returns (string memory) {\r\n    //     return myString;\r\n    // }\r\n    function getString() public view returns (string memory) {\r\n        return string(abi.encodePacked(myString, \" from getString\"));\r\n    }\r\n}\r\n",
  "sourcePath": "C:\\Users\\Wahj\\Desktop\\new-project\\contracts\\SimpleContract.sol",
  "compiler": {
    "name": "solc",
    "version": "0.8.19+commit.7dd6d404.Emscripten.clang"
  },
  "schemaVersion": "3.4.16",
  "updatedAt": "2024-05-03T23:07:45.062Z",
  "networkType": "ethereum",
  "devdoc": {
    "kind": "dev",
    "methods": {},
    "version": 1
  },
  "userdoc": {
    "kind": "user",
    "methods": {},
    "version": 1
  }
}